{
  "contractName": "LotteryFactory",
  "abi": [
    {
      "anonymous": false,
      "inputs": [
        {
          "indexed": false,
          "internalType": "uint256",
          "name": "lotteryId",
          "type": "uint256"
        },
        {
          "indexed": false,
          "internalType": "string",
          "name": "name",
          "type": "string"
        }
      ],
      "name": "NewLottery",
      "type": "event"
    },
    {
      "inputs": [
        {
          "internalType": "string",
          "name": "_name",
          "type": "string"
        },
        {
          "internalType": "uint256",
          "name": "_size",
          "type": "uint256"
        },
        {
          "internalType": "uint256",
          "name": "_ticketPrice",
          "type": "uint256"
        },
        {
          "internalType": "uint256",
          "name": "_ownerCommission",
          "type": "uint256"
        }
      ],
      "name": "createLottery",
      "outputs": [],
      "stateMutability": "nonpayable",
      "type": "function"
    },
    {
      "inputs": [],
      "name": "getLotteries",
      "outputs": [
        {
          "components": [
            {
              "internalType": "uint256",
              "name": "id",
              "type": "uint256"
            },
            {
              "internalType": "string",
              "name": "name",
              "type": "string"
            },
            {
              "internalType": "uint256",
              "name": "size",
              "type": "uint256"
            },
            {
              "internalType": "uint256",
              "name": "ticketPrice",
              "type": "uint256"
            },
            {
              "internalType": "uint256",
              "name": "ticketHolderCount",
              "type": "uint256"
            },
            {
              "internalType": "bool",
              "name": "completed",
              "type": "bool"
            },
            {
              "internalType": "address payable",
              "name": "owner",
              "type": "address"
            },
            {
              "internalType": "uint256",
              "name": "ownerCommission",
              "type": "uint256"
            },
            {
              "internalType": "address",
              "name": "winner",
              "type": "address"
            }
          ],
          "internalType": "struct LotteryFactory.Lottery[]",
          "name": "",
          "type": "tuple[]"
        }
      ],
      "stateMutability": "view",
      "type": "function"
    },
    {
      "inputs": [
        {
          "internalType": "uint256",
          "name": "_id",
          "type": "uint256"
        }
      ],
      "name": "getLottery",
      "outputs": [
        {
          "components": [
            {
              "internalType": "uint256",
              "name": "id",
              "type": "uint256"
            },
            {
              "internalType": "string",
              "name": "name",
              "type": "string"
            },
            {
              "internalType": "uint256",
              "name": "size",
              "type": "uint256"
            },
            {
              "internalType": "uint256",
              "name": "ticketPrice",
              "type": "uint256"
            },
            {
              "internalType": "uint256",
              "name": "ticketHolderCount",
              "type": "uint256"
            },
            {
              "internalType": "bool",
              "name": "completed",
              "type": "bool"
            },
            {
              "internalType": "address payable",
              "name": "owner",
              "type": "address"
            },
            {
              "internalType": "uint256",
              "name": "ownerCommission",
              "type": "uint256"
            },
            {
              "internalType": "address",
              "name": "winner",
              "type": "address"
            }
          ],
          "internalType": "struct LotteryFactory.Lottery",
          "name": "",
          "type": "tuple"
        }
      ],
      "stateMutability": "view",
      "type": "function"
    },
    {
      "inputs": [],
      "name": "getBalance",
      "outputs": [
        {
          "internalType": "uint256",
          "name": "",
          "type": "uint256"
        }
      ],
      "stateMutability": "view",
      "type": "function"
    },
    {
      "inputs": [
        {
          "internalType": "uint256",
          "name": "_lotteryId",
          "type": "uint256"
        }
      ],
      "name": "getTicketHolders",
      "outputs": [
        {
          "internalType": "address payable[]",
          "name": "",
          "type": "address[]"
        }
      ],
      "stateMutability": "view",
      "type": "function"
    },
    {
      "inputs": [
        {
          "internalType": "uint256",
          "name": "_lotteryId",
          "type": "uint256"
        }
      ],
      "name": "_getTotalPrize",
      "outputs": [
        {
          "internalType": "uint256",
          "name": "",
          "type": "uint256"
        }
      ],
      "stateMutability": "view",
      "type": "function"
    }
  ],
  "bytecode": "0x608060405234801561001057600080fd5b5061136c806100206000396000f3fe608060405234801561001057600080fd5b50600436106100615760003560e01c80622a5cc91461006657806305f12b161461009657806312065fe0146100b2578063746c3a1f146100d057806392e845f614610100578063bcc82ec414610130575b600080fd5b610080600480360381019061007b9190610bf0565b61014e565b60405161008d9190610f5f565b60405180910390f35b6100b060048036038101906100ab9190610b75565b6101ef565b005b6100ba6103e6565b6040516100c79190610fc5565b60405180910390f35b6100ea60048036038101906100e59190610bf0565b6103ee565b6040516100f79190610fc5565b60405180910390f35b61011a60048036038101906101159190610bf0565b6105ec565b6040516101279190610fa3565b60405180910390f35b6101386107da565b6040516101459190610f81565b60405180910390f35b6060600160008381526020019081526020016000208054806020026020016040519081016040528092919081815260200182805480156101e357602002820191906000526020600020905b8160009054906101000a900473ffffffffffffffffffffffffffffffffffffffff1673ffffffffffffffffffffffffffffffffffffffff1681526020019060010190808311610199575b50505050509050919050565b60006040518061012001604052806002548152602001868152602001858152602001848152602001600081526020016000151581526020013373ffffffffffffffffffffffffffffffffffffffff168152602001838152602001600073ffffffffffffffffffffffffffffffffffffffff1681525090806001815401808255809150506001900390600052602060002090600802016000909190919091506000820151816000015560208201518160010190805190602001906102b39291906109db565b5060408201518160020155606082015181600301556080820151816004015560a08201518160050160006101000a81548160ff02191690831515021790555060c08201518160050160016101000a81548173ffffffffffffffffffffffffffffffffffffffff021916908373ffffffffffffffffffffffffffffffffffffffff16021790555060e082015181600601556101008201518160070160006101000a81548173ffffffffffffffffffffffffffffffffffffffff021916908373ffffffffffffffffffffffffffffffffffffffff1602179055505050600260008154809291906103a090611238565b91905055507f5e473c502d063bf050ed1f4e96abaf3a714b79eb4c37f5455c39e4dec1282e40600254856040516103d8929190610fe0565b60405180910390a150505050565b600047905090565b6000806000838154811061042b577f4e487b7100000000000000000000000000000000000000000000000000000000600052603260045260246000fd5b9060005260206000209060080201604051806101200160405290816000820154815260200160018201805461045f90611206565b80601f016020809104026020016040519081016040528092919081815260200182805461048b90611206565b80156104d85780601f106104ad576101008083540402835291602001916104d8565b820191906000526020600020905b8154815290600101906020018083116104bb57829003601f168201915b505050505081526020016002820154815260200160038201548152602001600482015481526020016005820160009054906101000a900460ff161515151581526020016005820160019054906101000a900473ffffffffffffffffffffffffffffffffffffffff1673ffffffffffffffffffffffffffffffffffffffff1673ffffffffffffffffffffffffffffffffffffffff168152602001600682015481526020016007820160009054906101000a900473ffffffffffffffffffffffffffffffffffffffff1673ffffffffffffffffffffffffffffffffffffffff1673ffffffffffffffffffffffffffffffffffffffff168152505090506105e4816040015182606001516109c5565b915050919050565b6105f4610a61565b6000828154811061062e577f4e487b7100000000000000000000000000000000000000000000000000000000600052603260045260246000fd5b9060005260206000209060080201604051806101200160405290816000820154815260200160018201805461066290611206565b80601f016020809104026020016040519081016040528092919081815260200182805461068e90611206565b80156106db5780601f106106b0576101008083540402835291602001916106db565b820191906000526020600020905b8154815290600101906020018083116106be57829003601f168201915b505050505081526020016002820154815260200160038201548152602001600482015481526020016005820160009054906101000a900460ff161515151581526020016005820160019054906101000a900473ffffffffffffffffffffffffffffffffffffffff1673ffffffffffffffffffffffffffffffffffffffff1673ffffffffffffffffffffffffffffffffffffffff168152602001600682015481526020016007820160009054906101000a900473ffffffffffffffffffffffffffffffffffffffff1673ffffffffffffffffffffffffffffffffffffffff1673ffffffffffffffffffffffffffffffffffffffff16815250509050919050565b60606000805480602002602001604051908101604052809291908181526020016000905b828210156109bc5783829060005260206000209060080201604051806101200160405290816000820154815260200160018201805461083c90611206565b80601f016020809104026020016040519081016040528092919081815260200182805461086890611206565b80156108b55780601f1061088a576101008083540402835291602001916108b5565b820191906000526020600020905b81548152906001019060200180831161089857829003601f168201915b505050505081526020016002820154815260200160038201548152602001600482015481526020016005820160009054906101000a900460ff161515151581526020016005820160019054906101000a900473ffffffffffffffffffffffffffffffffffffffff1673ffffffffffffffffffffffffffffffffffffffff1673ffffffffffffffffffffffffffffffffffffffff168152602001600682015481526020016007820160009054906101000a900473ffffffffffffffffffffffffffffffffffffffff1673ffffffffffffffffffffffffffffffffffffffff1673ffffffffffffffffffffffffffffffffffffffff1681525050815260200190600101906107fe565b50505050905090565b600081836109d39190611110565b905092915050565b8280546109e790611206565b90600052602060002090601f016020900481019282610a095760008555610a50565b82601f10610a2257805160ff1916838001178555610a50565b82800160010185558215610a50579182015b82811115610a4f578251825591602001919060010190610a34565b5b509050610a5d9190610adb565b5090565b6040518061012001604052806000815260200160608152602001600081526020016000815260200160008152602001600015158152602001600073ffffffffffffffffffffffffffffffffffffffff16815260200160008152602001600073ffffffffffffffffffffffffffffffffffffffff1681525090565b5b80821115610af4576000816000905550600101610adc565b5090565b6000610b0b610b0684611041565b611010565b905082815260208101848484011115610b2357600080fd5b610b2e8482856111c4565b509392505050565b600082601f830112610b4757600080fd5b8135610b57848260208601610af8565b91505092915050565b600081359050610b6f8161131f565b92915050565b60008060008060808587031215610b8b57600080fd5b600085013567ffffffffffffffff811115610ba557600080fd5b610bb187828801610b36565b9450506020610bc287828801610b60565b9350506040610bd387828801610b60565b9250506060610be487828801610b60565b91505092959194509250565b600060208284031215610c0257600080fd5b6000610c1084828501610b60565b91505092915050565b6000610c258383610c45565b60208301905092915050565b6000610c3d8383610db7565b905092915050565b610c4e8161117c565b82525050565b610c5d8161116a565b82525050565b6000610c6e82611091565b610c7881856110cc565b9350610c8383611071565b8060005b83811015610cb4578151610c9b8882610c19565b9750610ca6836110b2565b925050600181019050610c87565b5085935050505092915050565b6000610ccc8261109c565b610cd681856110dd565b935083602082028501610ce885611081565b8060005b85811015610d245784840389528151610d058582610c31565b9450610d10836110bf565b925060208a01995050600181019050610cec565b50829750879550505050505092915050565b610d3f8161118e565b82525050565b6000610d50826110a7565b610d5a81856110ee565b9350610d6a8185602086016111d3565b610d738161130e565b840191505092915050565b6000610d89826110a7565b610d9381856110ff565b9350610da38185602086016111d3565b610dac8161130e565b840191505092915050565b600061012083016000830151610dd06000860182610f41565b5060208301518482036020860152610de88282610d45565b9150506040830151610dfd6040860182610f41565b506060830151610e106060860182610f41565b506080830151610e236080860182610f41565b5060a0830151610e3660a0860182610d36565b5060c0830151610e4960c0860182610c45565b5060e0830151610e5c60e0860182610f41565b50610100830151610e71610100860182610c54565b508091505092915050565b600061012083016000830151610e956000860182610f41565b5060208301518482036020860152610ead8282610d45565b9150506040830151610ec26040860182610f41565b506060830151610ed56060860182610f41565b506080830151610ee86080860182610f41565b5060a0830151610efb60a0860182610d36565b5060c0830151610f0e60c0860182610c45565b5060e0830151610f2160e0860182610f41565b50610100830151610f36610100860182610c54565b508091505092915050565b610f4a816111ba565b82525050565b610f59816111ba565b82525050565b60006020820190508181036000830152610f798184610c63565b905092915050565b60006020820190508181036000830152610f9b8184610cc1565b905092915050565b60006020820190508181036000830152610fbd8184610e7c565b905092915050565b6000602082019050610fda6000830184610f50565b92915050565b6000604082019050610ff56000830185610f50565b81810360208301526110078184610d7e565b90509392505050565b6000604051905081810181811067ffffffffffffffff82111715611037576110366112df565b5b8060405250919050565b600067ffffffffffffffff82111561105c5761105b6112df565b5b601f19601f8301169050602081019050919050565b6000819050602082019050919050565b6000819050602082019050919050565b600081519050919050565b600081519050919050565b600081519050919050565b6000602082019050919050565b6000602082019050919050565b600082825260208201905092915050565b600082825260208201905092915050565b600082825260208201905092915050565b600082825260208201905092915050565b600061111b826111ba565b9150611126836111ba565b9250817fffffffffffffffffffffffffffffffffffffffffffffffffffffffffffffffff048311821515161561115f5761115e611281565b5b828202905092915050565b60006111758261119a565b9050919050565b60006111878261119a565b9050919050565b60008115159050919050565b600073ffffffffffffffffffffffffffffffffffffffff82169050919050565b6000819050919050565b82818337600083830152505050565b60005b838110156111f15780820151818401526020810190506111d6565b83811115611200576000848401525b50505050565b6000600282049050600182168061121e57607f821691505b60208210811415611232576112316112b0565b5b50919050565b6000611243826111ba565b91507fffffffffffffffffffffffffffffffffffffffffffffffffffffffffffffffff82141561127657611275611281565b5b600182019050919050565b7f4e487b7100000000000000000000000000000000000000000000000000000000600052601160045260246000fd5b7f4e487b7100000000000000000000000000000000000000000000000000000000600052602260045260246000fd5b7f4e487b7100000000000000000000000000000000000000000000000000000000600052604160045260246000fd5b6000601f19601f8301169050919050565b611328816111ba565b811461133357600080fd5b5056fea26469706673582212204f549353005cd0ea5539cfad9302f44ede15ea8ea13856745ecddd12f4ff393f64736f6c63430008000033",
  "immutableReferences": {},
  "source": "// SPDX-License-Identifier: MIT\npragma solidity >=0.8.0;\n\nimport \"@openzeppelin/contracts/utils/math/SafeMath.sol\";\n\ncontract LotteryFactory {\n\n  using SafeMath for uint;\n\n  event NewLottery(uint lotteryId, string name);\n\n  struct Lottery {\n    uint id;\n    string name;\n    uint size;\n    uint ticketPrice;\n    uint ticketHolderCount;\n    bool completed;\n    address payable owner;\n    uint ownerCommission;\n    address winner;\n  }\n\n  Lottery[] lotteries;\n  mapping(uint => address payable[]) ticketHolders;\n  uint lotteryCount;\n\n  function createLottery(string memory _name, uint _size, uint _ticketPrice, uint _ownerCommission) public {\n    lotteries.push(Lottery(lotteryCount, _name, _size, _ticketPrice, 0, false, payable(msg.sender), _ownerCommission, address(0)));\n    lotteryCount++;\n    emit NewLottery(lotteryCount, _name);\n  }\n\n  function getLotteries() view public returns (Lottery[] memory) {\n    return lotteries;\n  }\n\n  function getLottery(uint _id) view public returns (Lottery memory) {\n    return lotteries[_id];\n  }\n  \n  function getBalance() public view returns (uint) { \n    return address(this).balance;\n  }\n\n  function getTicketHolders(uint _lotteryId) public view returns (address payable[] memory) { \n    return ticketHolders[_lotteryId];\n  }\n\n  function _getWinner(uint _lotteryId, uint _ticketId) internal view returns (address payable) {\n    address payable[] memory lotteryTicketHolders = getTicketHolders(_lotteryId);\n    require(lotteryTicketHolders[_ticketId] != address(0), \"winner must exist\");\n    return lotteryTicketHolders[_ticketId];\n  }\n\n  function _getTotalPrize(uint _lotteryId) public view returns (uint) {\n    Lottery memory lottery = lotteries[_lotteryId];\n    return SafeMath.mul(lottery.size, lottery.ticketPrice);\n  }\n\n  function _getShare(uint _lotteryId, uint _percentage) internal view returns (uint) {\n    Lottery memory lottery = lotteries[_lotteryId];\n    uint totalPrize = SafeMath.mul(lottery.size, lottery.ticketPrice);\n    return SafeMath.div(SafeMath.mul(totalPrize, _percentage), 100);\n  }\n}\n\ncontract LotteryTicket is LotteryFactory {\n\n  function _electWinner(Lottery memory _lottery) internal pure returns (uint) {\n    uint winnerId = 0; // use chainlink to generate random id between 0 and lotterySize\n    return winnerId;\n  }\n\n  function _transferFundsToWinner(Lottery memory _lottery, uint _winnerId) internal {\n    address payable winner = _getWinner(_lottery.id, _winnerId);\n    uint share = _getShare(_lottery.id, SafeMath.sub(100, _lottery.ownerCommission));\n    (bool success, ) = winner.call { value: share }(\"\");\n    require (success, \"Failed to send ether to winner\");\n  }\n\n  function _transferFundsToOwner(Lottery memory _lottery) internal {\n    uint share = _getShare(_lottery.id, _lottery.ownerCommission);\n    (bool success, ) = _lottery.owner.call{ value: share }(\"\");\n    require(success, \"Failed to send ether to owner\");\n  }\n\n  function buyTicket(uint _lotteryId) public payable {\n    Lottery storage lottery = lotteries[_lotteryId];\n    require(msg.value == lottery.ticketPrice);\n    require(!lottery.completed);\n    ticketHolders[_lotteryId].push(payable(msg.sender));\n    lottery.ticketHolderCount++;\n    if (lottery.ticketHolderCount == lottery.size) {\n      uint winnerId = _electWinner(lottery);\n      _transferFundsToWinner(lottery, winnerId);\n      _transferFundsToOwner(lottery);\n      lottery.completed = true;\n    }\n  }\n}",
  "sourcePath": "/Users/alexanderwiederin/Desktop/consensys/blockchain-developer-bootcamp-final-project/contracts/Lottery.sol",
  "compiler": {
    "name": "solc",
    "version": "0.8.0+commit.c7dfd78e.Emscripten.clang"
  },
  "schemaVersion": "3.4.3",
  "updatedAt": "2021-10-28T15:23:07.454Z",
  "devdoc": {
    "kind": "dev",
    "methods": {},
    "version": 1
  },
  "userdoc": {
    "kind": "user",
    "methods": {},
    "version": 1
  }
}