{
  "contractName": "LotteryTicket",
  "abi": [
    {
      "anonymous": false,
      "inputs": [
        {
          "indexed": false,
          "internalType": "uint256",
          "name": "lotteryId",
          "type": "uint256"
        },
        {
          "indexed": false,
          "internalType": "string",
          "name": "name",
          "type": "string"
        }
      ],
      "name": "NewLottery",
      "type": "event"
    },
    {
      "inputs": [
        {
          "internalType": "uint256",
          "name": "_lotteryId",
          "type": "uint256"
        }
      ],
      "name": "_getTotalPrize",
      "outputs": [
        {
          "internalType": "uint256",
          "name": "",
          "type": "uint256"
        }
      ],
      "stateMutability": "view",
      "type": "function"
    },
    {
      "inputs": [
        {
          "internalType": "string",
          "name": "_name",
          "type": "string"
        },
        {
          "internalType": "uint256",
          "name": "_size",
          "type": "uint256"
        },
        {
          "internalType": "uint256",
          "name": "_ticketPrice",
          "type": "uint256"
        },
        {
          "internalType": "uint256",
          "name": "_ownerCommission",
          "type": "uint256"
        }
      ],
      "name": "createLottery",
      "outputs": [],
      "stateMutability": "nonpayable",
      "type": "function"
    },
    {
      "inputs": [],
      "name": "getBalance",
      "outputs": [
        {
          "internalType": "uint256",
          "name": "",
          "type": "uint256"
        }
      ],
      "stateMutability": "view",
      "type": "function"
    },
    {
      "inputs": [],
      "name": "getLotteries",
      "outputs": [
        {
          "components": [
            {
              "internalType": "uint256",
              "name": "id",
              "type": "uint256"
            },
            {
              "internalType": "string",
              "name": "name",
              "type": "string"
            },
            {
              "internalType": "uint256",
              "name": "size",
              "type": "uint256"
            },
            {
              "internalType": "uint256",
              "name": "ticketPrice",
              "type": "uint256"
            },
            {
              "internalType": "uint256",
              "name": "ticketHolderCount",
              "type": "uint256"
            },
            {
              "internalType": "bool",
              "name": "completed",
              "type": "bool"
            },
            {
              "internalType": "address payable",
              "name": "owner",
              "type": "address"
            },
            {
              "internalType": "uint256",
              "name": "ownerCommission",
              "type": "uint256"
            },
            {
              "internalType": "address",
              "name": "winner",
              "type": "address"
            }
          ],
          "internalType": "struct LotteryFactory.Lottery[]",
          "name": "",
          "type": "tuple[]"
        }
      ],
      "stateMutability": "view",
      "type": "function"
    },
    {
      "inputs": [
        {
          "internalType": "uint256",
          "name": "_id",
          "type": "uint256"
        }
      ],
      "name": "getLottery",
      "outputs": [
        {
          "components": [
            {
              "internalType": "uint256",
              "name": "id",
              "type": "uint256"
            },
            {
              "internalType": "string",
              "name": "name",
              "type": "string"
            },
            {
              "internalType": "uint256",
              "name": "size",
              "type": "uint256"
            },
            {
              "internalType": "uint256",
              "name": "ticketPrice",
              "type": "uint256"
            },
            {
              "internalType": "uint256",
              "name": "ticketHolderCount",
              "type": "uint256"
            },
            {
              "internalType": "bool",
              "name": "completed",
              "type": "bool"
            },
            {
              "internalType": "address payable",
              "name": "owner",
              "type": "address"
            },
            {
              "internalType": "uint256",
              "name": "ownerCommission",
              "type": "uint256"
            },
            {
              "internalType": "address",
              "name": "winner",
              "type": "address"
            }
          ],
          "internalType": "struct LotteryFactory.Lottery",
          "name": "",
          "type": "tuple"
        }
      ],
      "stateMutability": "view",
      "type": "function"
    },
    {
      "inputs": [
        {
          "internalType": "uint256",
          "name": "_lotteryId",
          "type": "uint256"
        }
      ],
      "name": "getTicketHolders",
      "outputs": [
        {
          "internalType": "address payable[]",
          "name": "",
          "type": "address[]"
        }
      ],
      "stateMutability": "view",
      "type": "function"
    },
    {
      "inputs": [
        {
          "internalType": "uint256",
          "name": "_lotteryId",
          "type": "uint256"
        }
      ],
      "name": "buyTicket",
      "outputs": [],
      "stateMutability": "payable",
      "type": "function"
    }
  ],
  "bytecode": "0x608060405234801561001057600080fd5b506120fb806100206000396000f3fe60806040526004361061006f5760003560e01c806367dd74ca1161004e57806367dd74ca14610105578063746c3a1f1461012157806392e845f61461015e578063bcc82ec41461019b5761006f565b80622a5cc91461007457806305f12b16146100b157806312065fe0146100da575b600080fd5b34801561008057600080fd5b5061009b60048036038101906100969190611791565b6101c6565b6040516100a89190611bef565b60405180910390f35b3480156100bd57600080fd5b506100d860048036038101906100d39190611716565b610267565b005b3480156100e657600080fd5b506100ef61045e565b6040516100fc9190611cb5565b60405180910390f35b61011f600480360381019061011a9190611791565b610466565b005b34801561012d57600080fd5b5061014860048036038101906101439190611791565b610a83565b6040516101559190611cb5565b60405180910390f35b34801561016a57600080fd5b5061018560048036038101906101809190611791565b610c81565b6040516101929190611c93565b60405180910390f35b3480156101a757600080fd5b506101b0610e6f565b6040516101bd9190611c11565b60405180910390f35b60606001600083815260200190815260200160002080548060200260200160405190810160405280929190818152602001828054801561025b57602002820191906000526020600020905b8160009054906101000a900473ffffffffffffffffffffffffffffffffffffffff1673ffffffffffffffffffffffffffffffffffffffff1681526020019060010190808311610211575b50505050509050919050565b60006040518061012001604052806002548152602001868152602001858152602001848152602001600081526020016000151581526020013373ffffffffffffffffffffffffffffffffffffffff168152602001838152602001600073ffffffffffffffffffffffffffffffffffffffff16815250908060018154018082558091505060019003906000526020600020906008020160009091909190915060008201518160000155602082015181600101908051906020019061032b92919061157c565b5060408201518160020155606082015181600301556080820151816004015560a08201518160050160006101000a81548160ff02191690831515021790555060c08201518160050160016101000a81548173ffffffffffffffffffffffffffffffffffffffff021916908373ffffffffffffffffffffffffffffffffffffffff16021790555060e082015181600601556101008201518160070160006101000a81548173ffffffffffffffffffffffffffffffffffffffff021916908373ffffffffffffffffffffffffffffffffffffffff16021790555050506002600081548092919061041890611f98565b91905055507f5e473c502d063bf050ed1f4e96abaf3a714b79eb4c37f5455c39e4dec1282e4060025485604051610450929190611cd0565b60405180910390a150505050565b600047905090565b60008082815481106104a1577f4e487b7100000000000000000000000000000000000000000000000000000000600052603260045260246000fd5b90600052602060002090600802019050806003015434146104c157600080fd5b8060050160009054906101000a900460ff16156104dd57600080fd5b60016000838152602001908152602001600020339080600181540180825580915050600190039060005260206000200160009091909190916101000a81548173ffffffffffffffffffffffffffffffffffffffff021916908373ffffffffffffffffffffffffffffffffffffffff16021790555080600401600081548092919061056690611f98565b9190505550806002015481600401541415610a7f57600061071d8260405180610120016040529081600082015481526020016001820180546105a790611f66565b80601f01602080910402602001604051908101604052809291908181526020018280546105d390611f66565b80156106205780601f106105f557610100808354040283529160200191610620565b820191906000526020600020905b81548152906001019060200180831161060357829003601f168201915b505050505081526020016002820154815260200160038201548152602001600482015481526020016005820160009054906101000a900460ff161515151581526020016005820160019054906101000a900473ffffffffffffffffffffffffffffffffffffffff1673ffffffffffffffffffffffffffffffffffffffff1673ffffffffffffffffffffffffffffffffffffffff168152602001600682015481526020016007820160009054906101000a900473ffffffffffffffffffffffffffffffffffffffff1673ffffffffffffffffffffffffffffffffffffffff1673ffffffffffffffffffffffffffffffffffffffff168152505061105a565b90506108c082604051806101200160405290816000820154815260200160018201805461074990611f66565b80601f016020809104026020016040519081016040528092919081815260200182805461077590611f66565b80156107c25780601f10610797576101008083540402835291602001916107c2565b820191906000526020600020905b8154815290600101906020018083116107a557829003601f168201915b505050505081526020016002820154815260200160038201548152602001600482015481526020016005820160009054906101000a900460ff161515151581526020016005820160019054906101000a900473ffffffffffffffffffffffffffffffffffffffff1673ffffffffffffffffffffffffffffffffffffffff1673ffffffffffffffffffffffffffffffffffffffff168152602001600682015481526020016007820160009054906101000a900473ffffffffffffffffffffffffffffffffffffffff1673ffffffffffffffffffffffffffffffffffffffff1673ffffffffffffffffffffffffffffffffffffffff16815250508261106a565b610a608260405180610120016040529081600082015481526020016001820180546108ea90611f66565b80601f016020809104026020016040519081016040528092919081815260200182805461091690611f66565b80156109635780601f1061093857610100808354040283529160200191610963565b820191906000526020600020905b81548152906001019060200180831161094657829003601f168201915b505050505081526020016002820154815260200160038201548152602001600482015481526020016005820160009054906101000a900460ff161515151581526020016005820160019054906101000a900473ffffffffffffffffffffffffffffffffffffffff1673ffffffffffffffffffffffffffffffffffffffff1673ffffffffffffffffffffffffffffffffffffffff168152602001600682015481526020016007820160009054906101000a900473ffffffffffffffffffffffffffffffffffffffff1673ffffffffffffffffffffffffffffffffffffffff1673ffffffffffffffffffffffffffffffffffffffff168152505061114f565b60018260050160006101000a81548160ff021916908315150217905550505b5050565b60008060008381548110610ac0577f4e487b7100000000000000000000000000000000000000000000000000000000600052603260045260246000fd5b90600052602060002090600802016040518061012001604052908160008201548152602001600182018054610af490611f66565b80601f0160208091040260200160405190810160405280929190818152602001828054610b2090611f66565b8015610b6d5780601f10610b4257610100808354040283529160200191610b6d565b820191906000526020600020905b815481529060010190602001808311610b5057829003601f168201915b505050505081526020016002820154815260200160038201548152602001600482015481526020016005820160009054906101000a900460ff161515151581526020016005820160019054906101000a900473ffffffffffffffffffffffffffffffffffffffff1673ffffffffffffffffffffffffffffffffffffffff1673ffffffffffffffffffffffffffffffffffffffff168152602001600682015481526020016007820160009054906101000a900473ffffffffffffffffffffffffffffffffffffffff1673ffffffffffffffffffffffffffffffffffffffff1673ffffffffffffffffffffffffffffffffffffffff16815250509050610c798160400151826060015161121a565b915050919050565b610c89611602565b60008281548110610cc3577f4e487b7100000000000000000000000000000000000000000000000000000000600052603260045260246000fd5b90600052602060002090600802016040518061012001604052908160008201548152602001600182018054610cf790611f66565b80601f0160208091040260200160405190810160405280929190818152602001828054610d2390611f66565b8015610d705780601f10610d4557610100808354040283529160200191610d70565b820191906000526020600020905b815481529060010190602001808311610d5357829003601f168201915b505050505081526020016002820154815260200160038201548152602001600482015481526020016005820160009054906101000a900460ff161515151581526020016005820160019054906101000a900473ffffffffffffffffffffffffffffffffffffffff1673ffffffffffffffffffffffffffffffffffffffff1673ffffffffffffffffffffffffffffffffffffffff168152602001600682015481526020016007820160009054906101000a900473ffffffffffffffffffffffffffffffffffffffff1673ffffffffffffffffffffffffffffffffffffffff1673ffffffffffffffffffffffffffffffffffffffff16815250509050919050565b60606000805480602002602001604051908101604052809291908181526020016000905b8282101561105157838290600052602060002090600802016040518061012001604052908160008201548152602001600182018054610ed190611f66565b80601f0160208091040260200160405190810160405280929190818152602001828054610efd90611f66565b8015610f4a5780601f10610f1f57610100808354040283529160200191610f4a565b820191906000526020600020905b815481529060010190602001808311610f2d57829003601f168201915b505050505081526020016002820154815260200160038201548152602001600482015481526020016005820160009054906101000a900460ff161515151581526020016005820160019054906101000a900473ffffffffffffffffffffffffffffffffffffffff1673ffffffffffffffffffffffffffffffffffffffff1673ffffffffffffffffffffffffffffffffffffffff168152602001600682015481526020016007820160009054906101000a900473ffffffffffffffffffffffffffffffffffffffff1673ffffffffffffffffffffffffffffffffffffffff1673ffffffffffffffffffffffffffffffffffffffff168152505081526020019060010190610e93565b50505050905090565b6000806000905080915050919050565b600061107a836000015183611230565b9050600061109a846000015161109560648760e00151611338565b61134e565b905060008273ffffffffffffffffffffffffffffffffffffffff16826040516110c290611bda565b60006040518083038185875af1925050503d80600081146110ff576040519150601f19603f3d011682016040523d82523d6000602084013e611104565b606091505b5050905080611148576040517f08c379a000000000000000000000000000000000000000000000000000000000815260040161113f90611c53565b60405180910390fd5b5050505050565b600061116382600001518360e0015161134e565b905060008260c0015173ffffffffffffffffffffffffffffffffffffffff168260405161118f90611bda565b60006040518083038185875af1925050503d80600081146111cc576040519150601f19603f3d011682016040523d82523d6000602084013e6111d1565b606091505b5050905080611215576040517f08c379a000000000000000000000000000000000000000000000000000000000815260040161120c90611c73565b60405180910390fd5b505050565b600081836112289190611e3c565b905092915050565b60008061123c846101c6565b9050600073ffffffffffffffffffffffffffffffffffffffff1681848151811061128f577f4e487b7100000000000000000000000000000000000000000000000000000000600052603260045260246000fd5b602002602001015173ffffffffffffffffffffffffffffffffffffffff1614156112ee576040517f08c379a00000000000000000000000000000000000000000000000000000000081526004016112e590611c33565b60405180910390fd5b808381518110611327577f4e487b7100000000000000000000000000000000000000000000000000000000600052603260045260246000fd5b602002602001015191505092915050565b600081836113469190611e96565b905092915050565b6000806000848154811061138b577f4e487b7100000000000000000000000000000000000000000000000000000000600052603260045260246000fd5b906000526020600020906008020160405180610120016040529081600082015481526020016001820180546113bf90611f66565b80601f01602080910402602001604051908101604052809291908181526020018280546113eb90611f66565b80156114385780601f1061140d57610100808354040283529160200191611438565b820191906000526020600020905b81548152906001019060200180831161141b57829003601f168201915b505050505081526020016002820154815260200160038201548152602001600482015481526020016005820160009054906101000a900460ff161515151581526020016005820160019054906101000a900473ffffffffffffffffffffffffffffffffffffffff1673ffffffffffffffffffffffffffffffffffffffff1673ffffffffffffffffffffffffffffffffffffffff168152602001600682015481526020016007820160009054906101000a900473ffffffffffffffffffffffffffffffffffffffff1673ffffffffffffffffffffffffffffffffffffffff1673ffffffffffffffffffffffffffffffffffffffff1681525050905060006115468260400151836060015161121a565b905061155c611555828661121a565b6064611566565b9250505092915050565b600081836115749190611e0b565b905092915050565b82805461158890611f66565b90600052602060002090601f0160209004810192826115aa57600085556115f1565b82601f106115c357805160ff19168380011785556115f1565b828001600101855582156115f1579182015b828111156115f05782518255916020019190600101906115d5565b5b5090506115fe919061167c565b5090565b6040518061012001604052806000815260200160608152602001600081526020016000815260200160008152602001600015158152602001600073ffffffffffffffffffffffffffffffffffffffff16815260200160008152602001600073ffffffffffffffffffffffffffffffffffffffff1681525090565b5b8082111561169557600081600090555060010161167d565b5090565b60006116ac6116a784611d31565b611d00565b9050828152602081018484840111156116c457600080fd5b6116cf848285611f24565b509392505050565b600082601f8301126116e857600080fd5b81356116f8848260208601611699565b91505092915050565b600081359050611710816120ae565b92915050565b6000806000806080858703121561172c57600080fd5b600085013567ffffffffffffffff81111561174657600080fd5b611752878288016116d7565b945050602061176387828801611701565b935050604061177487828801611701565b925050606061178587828801611701565b91505092959194509250565b6000602082840312156117a357600080fd5b60006117b184828501611701565b91505092915050565b60006117c683836117e6565b60208301905092915050565b60006117de8383611a32565b905092915050565b6117ef81611edc565b82525050565b6117fe81611eca565b82525050565b600061180f82611d81565b6118198185611dbc565b935061182483611d61565b8060005b8381101561185557815161183c88826117ba565b975061184783611da2565b925050600181019050611828565b5085935050505092915050565b600061186d82611d8c565b6118778185611dcd565b93508360208202850161188985611d71565b8060005b858110156118c557848403895281516118a685826117d2565b94506118b183611daf565b925060208a0199505060018101905061188d565b50829750879550505050505092915050565b6118e081611eee565b82525050565b60006118f182611d97565b6118fb8185611de9565b935061190b818560208601611f33565b6119148161209d565b840191505092915050565b600061192a82611d97565b6119348185611dfa565b9350611944818560208601611f33565b61194d8161209d565b840191505092915050565b6000611965601183611dfa565b91507f77696e6e6572206d7573742065786973740000000000000000000000000000006000830152602082019050919050565b60006119a5600083611dde565b9150600082019050919050565b60006119bf601e83611dfa565b91507f4661696c656420746f2073656e6420657468657220746f2077696e6e657200006000830152602082019050919050565b60006119ff601d83611dfa565b91507f4661696c656420746f2073656e6420657468657220746f206f776e65720000006000830152602082019050919050565b600061012083016000830151611a4b6000860182611bbc565b5060208301518482036020860152611a6382826118e6565b9150506040830151611a786040860182611bbc565b506060830151611a8b6060860182611bbc565b506080830151611a9e6080860182611bbc565b5060a0830151611ab160a08601826118d7565b5060c0830151611ac460c08601826117e6565b5060e0830151611ad760e0860182611bbc565b50610100830151611aec6101008601826117f5565b508091505092915050565b600061012083016000830151611b106000860182611bbc565b5060208301518482036020860152611b2882826118e6565b9150506040830151611b3d6040860182611bbc565b506060830151611b506060860182611bbc565b506080830151611b636080860182611bbc565b5060a0830151611b7660a08601826118d7565b5060c0830151611b8960c08601826117e6565b5060e0830151611b9c60e0860182611bbc565b50610100830151611bb16101008601826117f5565b508091505092915050565b611bc581611f1a565b82525050565b611bd481611f1a565b82525050565b6000611be582611998565b9150819050919050565b60006020820190508181036000830152611c098184611804565b905092915050565b60006020820190508181036000830152611c2b8184611862565b905092915050565b60006020820190508181036000830152611c4c81611958565b9050919050565b60006020820190508181036000830152611c6c816119b2565b9050919050565b60006020820190508181036000830152611c8c816119f2565b9050919050565b60006020820190508181036000830152611cad8184611af7565b905092915050565b6000602082019050611cca6000830184611bcb565b92915050565b6000604082019050611ce56000830185611bcb565b8181036020830152611cf7818461191f565b90509392505050565b6000604051905081810181811067ffffffffffffffff82111715611d2757611d2661206e565b5b8060405250919050565b600067ffffffffffffffff821115611d4c57611d4b61206e565b5b601f19601f8301169050602081019050919050565b6000819050602082019050919050565b6000819050602082019050919050565b600081519050919050565b600081519050919050565b600081519050919050565b6000602082019050919050565b6000602082019050919050565b600082825260208201905092915050565b600082825260208201905092915050565b600081905092915050565b600082825260208201905092915050565b600082825260208201905092915050565b6000611e1682611f1a565b9150611e2183611f1a565b925082611e3157611e30612010565b5b828204905092915050565b6000611e4782611f1a565b9150611e5283611f1a565b9250817fffffffffffffffffffffffffffffffffffffffffffffffffffffffffffffffff0483118215151615611e8b57611e8a611fe1565b5b828202905092915050565b6000611ea182611f1a565b9150611eac83611f1a565b925082821015611ebf57611ebe611fe1565b5b828203905092915050565b6000611ed582611efa565b9050919050565b6000611ee782611efa565b9050919050565b60008115159050919050565b600073ffffffffffffffffffffffffffffffffffffffff82169050919050565b6000819050919050565b82818337600083830152505050565b60005b83811015611f51578082015181840152602081019050611f36565b83811115611f60576000848401525b50505050565b60006002820490506001821680611f7e57607f821691505b60208210811415611f9257611f9161203f565b5b50919050565b6000611fa382611f1a565b91507fffffffffffffffffffffffffffffffffffffffffffffffffffffffffffffffff821415611fd657611fd5611fe1565b5b600182019050919050565b7f4e487b7100000000000000000000000000000000000000000000000000000000600052601160045260246000fd5b7f4e487b7100000000000000000000000000000000000000000000000000000000600052601260045260246000fd5b7f4e487b7100000000000000000000000000000000000000000000000000000000600052602260045260246000fd5b7f4e487b7100000000000000000000000000000000000000000000000000000000600052604160045260246000fd5b6000601f19601f8301169050919050565b6120b781611f1a565b81146120c257600080fd5b5056fea264697066735822122023f6addf5cfc4153b2fc50e6cab06d4a5a6c1b53e878d3fd0c086a83b091dcc564736f6c63430008000033",
  "immutableReferences": {},
  "source": "// SPDX-License-Identifier: MIT\npragma solidity >=0.8.0;\n\nimport \"@openzeppelin/contracts/utils/math/SafeMath.sol\";\n\ncontract LotteryFactory {\n\n  using SafeMath for uint;\n\n  event NewLottery(uint lotteryId, string name);\n\n  struct Lottery {\n    uint id;\n    string name;\n    uint size;\n    uint ticketPrice;\n    uint ticketHolderCount;\n    bool completed;\n    address payable owner;\n    uint ownerCommission;\n    address winner;\n  }\n\n  Lottery[] lotteries;\n  mapping(uint => address payable[]) ticketHolders;\n  uint lotteryCount;\n\n  function createLottery(string memory _name, uint _size, uint _ticketPrice, uint _ownerCommission) public {\n    lotteries.push(Lottery(lotteryCount, _name, _size, _ticketPrice, 0, false, payable(msg.sender), _ownerCommission, address(0)));\n    lotteryCount++;\n    emit NewLottery(lotteryCount, _name);\n  }\n\n  function getLotteries() view public returns (Lottery[] memory) {\n    return lotteries;\n  }\n\n  function getLottery(uint _id) view public returns (Lottery memory) {\n    return lotteries[_id];\n  }\n  \n  function getBalance() public view returns (uint) { \n    return address(this).balance;\n  }\n\n  function getTicketHolders(uint _lotteryId) public view returns (address payable[] memory) { \n    return ticketHolders[_lotteryId];\n  }\n\n  function _getWinner(uint _lotteryId, uint _ticketId) internal view returns (address payable) {\n    address payable[] memory lotteryTicketHolders = getTicketHolders(_lotteryId);\n    require(lotteryTicketHolders[_ticketId] != address(0), \"winner must exist\");\n    return lotteryTicketHolders[_ticketId];\n  }\n\n  function _getTotalPrize(uint _lotteryId) public view returns (uint) {\n    Lottery memory lottery = lotteries[_lotteryId];\n    return SafeMath.mul(lottery.size, lottery.ticketPrice);\n  }\n\n  function _getShare(uint _lotteryId, uint _percentage) internal view returns (uint) {\n    Lottery memory lottery = lotteries[_lotteryId];\n    uint totalPrize = SafeMath.mul(lottery.size, lottery.ticketPrice);\n    return SafeMath.div(SafeMath.mul(totalPrize, _percentage), 100);\n  }\n}\n\ncontract LotteryTicket is LotteryFactory {\n\n  function _electWinner(Lottery memory _lottery) internal pure returns (uint) {\n    uint winnerId = 0; // use chainlink to generate random id between 0 and lotterySize\n    return winnerId;\n  }\n\n  function _transferFundsToWinner(Lottery memory _lottery, uint _winnerId) internal {\n    address payable winner = _getWinner(_lottery.id, _winnerId);\n    uint share = _getShare(_lottery.id, SafeMath.sub(100, _lottery.ownerCommission));\n    (bool success, ) = winner.call { value: share }(\"\");\n    require (success, \"Failed to send ether to winner\");\n  }\n\n  function _transferFundsToOwner(Lottery memory _lottery) internal {\n    uint share = _getShare(_lottery.id, _lottery.ownerCommission);\n    (bool success, ) = _lottery.owner.call{ value: share }(\"\");\n    require(success, \"Failed to send ether to owner\");\n  }\n\n  function buyTicket(uint _lotteryId) public payable {\n    Lottery storage lottery = lotteries[_lotteryId];\n    require(msg.value == lottery.ticketPrice);\n    require(!lottery.completed);\n    ticketHolders[_lotteryId].push(payable(msg.sender));\n    lottery.ticketHolderCount++;\n    if (lottery.ticketHolderCount == lottery.size) {\n      uint winnerId = _electWinner(lottery);\n      _transferFundsToWinner(lottery, winnerId);\n      _transferFundsToOwner(lottery);\n      lottery.completed = true;\n    }\n  }\n}",
  "sourcePath": "/Users/alexanderwiederin/Desktop/consensys/blockchain-developer-bootcamp-final-project/contracts/Lottery.sol",
  "compiler": {
    "name": "solc",
    "version": "0.8.0+commit.c7dfd78e.Emscripten.clang"
  },
  "schemaVersion": "3.4.3",
  "updatedAt": "2021-10-28T15:23:07.529Z",
  "devdoc": {
    "kind": "dev",
    "methods": {},
    "version": 1
  },
  "userdoc": {
    "kind": "user",
    "methods": {},
    "version": 1
  }
}